{
  "_format": "hh-sol-artifact-1",
  "contractName": "MyEpicNFT",
  "sourceName": "contracts/MyEpicNFT.sol",
  "abi": [
    {
      "inputs": [],
      "stateMutability": "nonpayable",
      "type": "constructor"
    },
    {
      "anonymous": false,
      "inputs": [
        {
          "indexed": true,
          "internalType": "address",
          "name": "owner",
          "type": "address"
        },
        {
          "indexed": true,
          "internalType": "address",
          "name": "approved",
          "type": "address"
        },
        {
          "indexed": true,
          "internalType": "uint256",
          "name": "tokenId",
          "type": "uint256"
        }
      ],
      "name": "Approval",
      "type": "event"
    },
    {
      "anonymous": false,
      "inputs": [
        {
          "indexed": true,
          "internalType": "address",
          "name": "owner",
          "type": "address"
        },
        {
          "indexed": true,
          "internalType": "address",
          "name": "operator",
          "type": "address"
        },
        {
          "indexed": false,
          "internalType": "bool",
          "name": "approved",
          "type": "bool"
        }
      ],
      "name": "ApprovalForAll",
      "type": "event"
    },
    {
      "anonymous": false,
      "inputs": [
        {
          "indexed": false,
          "internalType": "address",
          "name": "sender",
          "type": "address"
        },
        {
          "indexed": false,
          "internalType": "uint256",
          "name": "tokenId",
          "type": "uint256"
        },
        {
          "indexed": false,
          "internalType": "uint256",
          "name": "nftCount",
          "type": "uint256"
        }
      ],
      "name": "NewEpicNFTMinted",
      "type": "event"
    },
    {
      "anonymous": false,
      "inputs": [
        {
          "indexed": true,
          "internalType": "address",
          "name": "from",
          "type": "address"
        },
        {
          "indexed": true,
          "internalType": "address",
          "name": "to",
          "type": "address"
        },
        {
          "indexed": true,
          "internalType": "uint256",
          "name": "tokenId",
          "type": "uint256"
        }
      ],
      "name": "Transfer",
      "type": "event"
    },
    {
      "inputs": [
        {
          "internalType": "address",
          "name": "to",
          "type": "address"
        },
        {
          "internalType": "uint256",
          "name": "tokenId",
          "type": "uint256"
        }
      ],
      "name": "approve",
      "outputs": [],
      "stateMutability": "nonpayable",
      "type": "function"
    },
    {
      "inputs": [
        {
          "internalType": "address",
          "name": "owner",
          "type": "address"
        }
      ],
      "name": "balanceOf",
      "outputs": [
        {
          "internalType": "uint256",
          "name": "",
          "type": "uint256"
        }
      ],
      "stateMutability": "view",
      "type": "function"
    },
    {
      "inputs": [
        {
          "internalType": "uint256",
          "name": "tokenId",
          "type": "uint256"
        }
      ],
      "name": "getApproved",
      "outputs": [
        {
          "internalType": "address",
          "name": "",
          "type": "address"
        }
      ],
      "stateMutability": "view",
      "type": "function"
    },
    {
      "inputs": [],
      "name": "getTotalNFTsMintedSoFar",
      "outputs": [
        {
          "internalType": "uint256",
          "name": "",
          "type": "uint256"
        }
      ],
      "stateMutability": "view",
      "type": "function"
    },
    {
      "inputs": [
        {
          "internalType": "address",
          "name": "owner",
          "type": "address"
        },
        {
          "internalType": "address",
          "name": "operator",
          "type": "address"
        }
      ],
      "name": "isApprovedForAll",
      "outputs": [
        {
          "internalType": "bool",
          "name": "",
          "type": "bool"
        }
      ],
      "stateMutability": "view",
      "type": "function"
    },
    {
      "inputs": [],
      "name": "makeAnEpicNFT",
      "outputs": [],
      "stateMutability": "nonpayable",
      "type": "function"
    },
    {
      "inputs": [],
      "name": "name",
      "outputs": [
        {
          "internalType": "string",
          "name": "",
          "type": "string"
        }
      ],
      "stateMutability": "view",
      "type": "function"
    },
    {
      "inputs": [
        {
          "internalType": "uint256",
          "name": "tokenId",
          "type": "uint256"
        }
      ],
      "name": "ownerOf",
      "outputs": [
        {
          "internalType": "address",
          "name": "",
          "type": "address"
        }
      ],
      "stateMutability": "view",
      "type": "function"
    },
    {
      "inputs": [
        {
          "internalType": "uint256",
          "name": "tokenId",
          "type": "uint256"
        }
      ],
      "name": "pickRandomColor",
      "outputs": [
        {
          "internalType": "string",
          "name": "",
          "type": "string"
        }
      ],
      "stateMutability": "view",
      "type": "function"
    },
    {
      "inputs": [
        {
          "internalType": "uint256",
          "name": "tokenId",
          "type": "uint256"
        }
      ],
      "name": "pickRandomFirstWord",
      "outputs": [
        {
          "internalType": "string",
          "name": "",
          "type": "string"
        }
      ],
      "stateMutability": "view",
      "type": "function"
    },
    {
      "inputs": [
        {
          "internalType": "uint256",
          "name": "tokenId",
          "type": "uint256"
        }
      ],
      "name": "pickRandomSecondWord",
      "outputs": [
        {
          "internalType": "string",
          "name": "",
          "type": "string"
        }
      ],
      "stateMutability": "view",
      "type": "function"
    },
    {
      "inputs": [
        {
          "internalType": "uint256",
          "name": "tokenId",
          "type": "uint256"
        }
      ],
      "name": "pickRandomThirdWord",
      "outputs": [
        {
          "internalType": "string",
          "name": "",
          "type": "string"
        }
      ],
      "stateMutability": "view",
      "type": "function"
    },
    {
      "inputs": [
        {
          "internalType": "address",
          "name": "from",
          "type": "address"
        },
        {
          "internalType": "address",
          "name": "to",
          "type": "address"
        },
        {
          "internalType": "uint256",
          "name": "tokenId",
          "type": "uint256"
        }
      ],
      "name": "safeTransferFrom",
      "outputs": [],
      "stateMutability": "nonpayable",
      "type": "function"
    },
    {
      "inputs": [
        {
          "internalType": "address",
          "name": "from",
          "type": "address"
        },
        {
          "internalType": "address",
          "name": "to",
          "type": "address"
        },
        {
          "internalType": "uint256",
          "name": "tokenId",
          "type": "uint256"
        },
        {
          "internalType": "bytes",
          "name": "_data",
          "type": "bytes"
        }
      ],
      "name": "safeTransferFrom",
      "outputs": [],
      "stateMutability": "nonpayable",
      "type": "function"
    },
    {
      "inputs": [
        {
          "internalType": "address",
          "name": "operator",
          "type": "address"
        },
        {
          "internalType": "bool",
          "name": "approved",
          "type": "bool"
        }
      ],
      "name": "setApprovalForAll",
      "outputs": [],
      "stateMutability": "nonpayable",
      "type": "function"
    },
    {
      "inputs": [
        {
          "internalType": "bytes4",
          "name": "interfaceId",
          "type": "bytes4"
        }
      ],
      "name": "supportsInterface",
      "outputs": [
        {
          "internalType": "bool",
          "name": "",
          "type": "bool"
        }
      ],
      "stateMutability": "view",
      "type": "function"
    },
    {
      "inputs": [],
      "name": "symbol",
      "outputs": [
        {
          "internalType": "string",
          "name": "",
          "type": "string"
        }
      ],
      "stateMutability": "view",
      "type": "function"
    },
    {
      "inputs": [
        {
          "internalType": "uint256",
          "name": "tokenId",
          "type": "uint256"
        }
      ],
      "name": "tokenURI",
      "outputs": [
        {
          "internalType": "string",
          "name": "",
          "type": "string"
        }
      ],
      "stateMutability": "view",
      "type": "function"
    },
    {
      "inputs": [
        {
          "internalType": "address",
          "name": "from",
          "type": "address"
        },
        {
          "internalType": "address",
          "name": "to",
          "type": "address"
        },
        {
          "internalType": "uint256",
          "name": "tokenId",
          "type": "uint256"
        }
      ],
      "name": "transferFrom",
      "outputs": [],
      "stateMutability": "nonpayable",
      "type": "function"
    }
  ],
  "bytecode": "0x608060405260405180610100016040528060d3815260200162004c5960d39139600990805190602001906200003692919062000df2565b5060405180608001604052806056815260200162004d2c60569139600a90805190602001906200006892919062000df2565b50604051806101c001604052806040518060400160405280600981526020017f416d617a696e676c79000000000000000000000000000000000000000000000081525081526020016040518060400160405280600c81526020017f5472656d656e646f75736c79000000000000000000000000000000000000000081525081526020016040518060400160405280600c81526020017f457863656c6c656e746c6c79000000000000000000000000000000000000000081525081526020016040518060400160405280600681526020017f5765616b6c79000000000000000000000000000000000000000000000000000081525081526020016040518060400160405280600a81526020017f466162756c6f75736c790000000000000000000000000000000000000000000081525081526020016040518060400160405280600681526020017f457069636c79000000000000000000000000000000000000000000000000000081525081526020016040518060400160405280600781526020017f4372617a696c790000000000000000000000000000000000000000000000000081525081526020016040518060400160405280600681526020017f57696c646c79000000000000000000000000000000000000000000000000000081525081526020016040518060400160405280600c81526020017f54657272796679696e676c79000000000000000000000000000000000000000081525081526020016040518060400160405280600b81526020017f53746172746c696e676c7900000000000000000000000000000000000000000081525081526020016040518060400160405280600a81526020017f5374756e6e696e676c790000000000000000000000000000000000000000000081525081526020016040518060400160405280600d81526020017f4173746f6e697368696e676c790000000000000000000000000000000000000081525081526020016040518060400160405280600781526020017f436f6f6c6573740000000000000000000000000000000000000000000000000081525081526020016040518060400160405280600781526020017f44756d6265737400000000000000000000000000000000000000000000000000815250815250600b90600e620003bf92919062000e83565b50604051806101c001604052806040518060400160405280600681526020017f456174696e67000000000000000000000000000000000000000000000000000081525081526020016040518060400160405280600781526020017f44616e63696e670000000000000000000000000000000000000000000000000081525081526020016040518060400160405280600781526020017f4a65726b696e670000000000000000000000000000000000000000000000000081525081526020016040518060400160405280600781526020017f53696e67696e670000000000000000000000000000000000000000000000000081525081526020016040518060400160405280600681526020017f437279696e67000000000000000000000000000000000000000000000000000081525081526020016040518060400160405280600881526020017f4c61756768696e6700000000000000000000000000000000000000000000000081525081526020016040518060400160405280600781526020017f52756e6e696e670000000000000000000000000000000000000000000000000081525081526020016040518060400160405280600881526020017f437261776c696e6700000000000000000000000000000000000000000000000081525081526020016040518060400160405280600881526020017f4669676874696e6700000000000000000000000000000000000000000000000081525081526020016040518060400160405280600881526020017f536c656570696e6700000000000000000000000000000000000000000000000081525081526020016040518060400160405280600781526020017f57616c6b696e670000000000000000000000000000000000000000000000000081525081526020016040518060400160405280600681526020017f466c79696e67000000000000000000000000000000000000000000000000000081525081526020016040518060400160405280600781526020017f46616c6c696e670000000000000000000000000000000000000000000000000081525081526020016040518060400160405280600781526020017f50757368696e6700000000000000000000000000000000000000000000000000815250815250600c90600e6200071692919062000e83565b50604051806101c001604052806040518060400160405280600681526020017f4e617275746f000000000000000000000000000000000000000000000000000081525081526020016040518060400160405280600781526020017f4b616b617368690000000000000000000000000000000000000000000000000081525081526020016040518060400160405280600681526020017f536173756b65000000000000000000000000000000000000000000000000000081525081526020016040518060400160405280600781526020017f4a6972616979610000000000000000000000000000000000000000000000000081525081526020016040518060400160405280600681526020017f48696e617461000000000000000000000000000000000000000000000000000081525081526020016040518060400160405280600681526020017f53616b757261000000000000000000000000000000000000000000000000000081525081526020016040518060400160405280600681526020017f497461636869000000000000000000000000000000000000000000000000000081525081526020016040518060400160405280600781526020017f5473756e6164650000000000000000000000000000000000000000000000000081525081526020016040518060400160405280600681526020017f4d6164617261000000000000000000000000000000000000000000000000000081525081526020016040518060400160405280600581526020017f4f6269746f00000000000000000000000000000000000000000000000000000081525081526020016040518060400160405280600681526020017f4d696e61746f000000000000000000000000000000000000000000000000000081525081526020016040518060400160405280600581526020017f476161726100000000000000000000000000000000000000000000000000000081525081526020016040518060400160405280600a81526020017f4f726f6368696d6172750000000000000000000000000000000000000000000081525081526020016040518060400160405280600781526020017f526f636b4c656500000000000000000000000000000000000000000000000000815250815250600d90600e62000a6d92919062000e83565b506040518060e001604052806040518060400160405280600781526020017f234646354335380000000000000000000000000000000000000000000000000081525081526020016040518060400160405280600781526020017f233043454344440000000000000000000000000000000000000000000000000081525081526020016040518060400160405280600581526020017f626c61636b00000000000000000000000000000000000000000000000000000081525081526020016040518060400160405280600781526020017f233543374145410000000000000000000000000000000000000000000000000081525081526020016040518060400160405280600781526020017f233832333643420000000000000000000000000000000000000000000000000081525081526020016040518060400160405280600781526020017f234630333741350000000000000000000000000000000000000000000000000081525081526020016040518060400160405280600781526020017f2346444534394300000000000000000000000000000000000000000000000000815250815250600e90600762000c2692919062000eea565b5034801562000c3457600080fd5b506040518060400160405280600b81526020017f4e617275746f4b756e56310000000000000000000000000000000000000000008152506040518060400160405280600681526020017f4e415255544f0000000000000000000000000000000000000000000000000000815250816000908051906020019062000cb992919062000df2565b50806001908051906020019062000cd292919062000df2565b50505062000d206040518060400160405280601481526020017f54686973206973206d79204e46542e204f4f462100000000000000000000000081525062000d2660201b6200143b1760201c565b6200110b565b62000dc68160405160240162000d3d91906200101f565b6040516020818303038152906040527f41304fac000000000000000000000000000000000000000000000000000000007bffffffffffffffffffffffffffffffffffffffffffffffffffffffff19166020820180517bffffffffffffffffffffffffffffffffffffffffffffffffffffffff838183161783525050505062000dc960201b60201c565b50565b60008151905060006a636f6e736f6c652e6c6f679050602083016000808483855afa5050505050565b82805462000e009062001095565b90600052602060002090601f01602090048101928262000e24576000855562000e70565b82601f1062000e3f57805160ff191683800117855562000e70565b8280016001018555821562000e70579182015b8281111562000e6f57825182559160200191906001019062000e52565b5b50905062000e7f919062000f51565b5090565b82805482825590600052602060002090810192821562000ed7579160200282015b8281111562000ed657825182908051906020019062000ec592919062000df2565b509160200191906001019062000ea4565b5b50905062000ee6919062000f70565b5090565b82805482825590600052602060002090810192821562000f3e579160200282015b8281111562000f3d57825182908051906020019062000f2c92919062000df2565b509160200191906001019062000f0b565b5b50905062000f4d919062000f70565b5090565b5b8082111562000f6c57600081600090555060010162000f52565b5090565b5b8082111562000f94576000818162000f8a919062000f98565b5060010162000f71565b5090565b50805462000fa69062001095565b6000825580601f1062000fba575062000fdb565b601f01602090049060005260206000209081019062000fda919062000f51565b5b50565b600062000feb8262001043565b62000ff781856200104e565b9350620010098185602086016200105f565b6200101481620010fa565b840191505092915050565b600060208201905081810360008301526200103b818462000fde565b905092915050565b600081519050919050565b600082825260208201905092915050565b60005b838110156200107f57808201518184015260208101905062001062565b838111156200108f576000848401525b50505050565b60006002820490506001821680620010ae57607f821691505b60208210811415620010c557620010c4620010cb565b5b50919050565b7f4e487b7100000000000000000000000000000000000000000000000000000000600052602260045260246000fd5b6000601f19601f8301169050919050565b613b3e806200111b6000396000f3fe608060405234801561001057600080fd5b50600436106101215760003560e01c80636352211e116100ad578063b88d4fde11610071578063b88d4fde14610340578063c575757a1461035c578063c87b56dd1461038c578063de9d132f146103bc578063e985e9c5146103c657610121565b80636352211e1461027657806370a08231146102a657806395d89b41146102d6578063a22cb465146102f4578063b187301f1461031057610121565b8063095ea7b3116100f4578063095ea7b3146101c257806323b872dd146101de5780632de38d68146101fa57806342842e0e1461022a578063514dc8c61461024657610121565b806301ffc9a714610126578063060475901461015657806306fdde0314610174578063081812fc14610192575b600080fd5b610140600480360381019061013b91906126ce565b6103f6565b60405161014d9190613394565b60405180910390f35b61015e6104d8565b60405161016b919061362f565b60405180910390f35b61017c6104e2565b60405161018991906133af565b60405180910390f35b6101ac60048036038101906101a79190612720565b610574565b6040516101b991906132f6565b60405180910390f35b6101dc60048036038101906101d79190612692565b6105f9565b005b6101f860048036038101906101f3919061258c565b610711565b005b610214600480360381019061020f9190612720565b610771565b60405161022191906133af565b60405180910390f35b610244600480360381019061023f919061258c565b61088f565b005b610260600480360381019061025b9190612720565b6108af565b60405161026d91906133af565b60405180910390f35b610290600480360381019061028b9190612720565b6109cd565b60405161029d91906132f6565b60405180910390f35b6102c060048036038101906102bb9190612527565b610a7f565b6040516102cd919061362f565b60405180910390f35b6102de610b37565b6040516102eb91906133af565b60405180910390f35b61030e60048036038101906103099190612656565b610bc9565b005b61032a60048036038101906103259190612720565b610d4a565b60405161033791906133af565b60405180910390f35b61035a600480360381019061035591906125db565b610e68565b005b61037660048036038101906103719190612720565b610eca565b60405161038391906133af565b60405180910390f35b6103a660048036038101906103a19190612720565b610fe8565b6040516103b391906133af565b60405180910390f35b6103c461113a565b005b6103e060048036038101906103db9190612550565b6113a7565b6040516103ed9190613394565b60405180910390f35b60007f80ac58cd000000000000000000000000000000000000000000000000000000007bffffffffffffffffffffffffffffffffffffffffffffffffffffffff1916827bffffffffffffffffffffffffffffffffffffffffffffffffffffffff191614806104c157507f5b5e139f000000000000000000000000000000000000000000000000000000007bffffffffffffffffffffffffffffffffffffffffffffffffffffffff1916827bffffffffffffffffffffffffffffffffffffffffffffffffffffffff1916145b806104d157506104d0826114d4565b5b9050919050565b6000600854905090565b6060600080546104f1906138ce565b80601f016020809104026020016040519081016040528092919081815260200182805461051d906138ce565b801561056a5780601f1061053f5761010080835404028352916020019161056a565b820191906000526020600020905b81548152906001019060200180831161054d57829003601f168201915b5050505050905090565b600061057f8261153e565b6105be576040517f08c379a00000000000000000000000000000000000000000000000000000000081526004016105b59061356f565b60405180910390fd5b6004600083815260200190815260200160002060009054906101000a900473ffffffffffffffffffffffffffffffffffffffff169050919050565b6000610604826109cd565b90508073ffffffffffffffffffffffffffffffffffffffff168373ffffffffffffffffffffffffffffffffffffffff161415610675576040517f08c379a000000000000000000000000000000000000000000000000000000000815260040161066c906135cf565b60405180910390fd5b8073ffffffffffffffffffffffffffffffffffffffff166106946115aa565b73ffffffffffffffffffffffffffffffffffffffff1614806106c357506106c2816106bd6115aa565b6113a7565b5b610702576040517f08c379a00000000000000000000000000000000000000000000000000000000081526004016106f9906134af565b60405180910390fd5b61070c83836115b2565b505050565b61072261071c6115aa565b8261166b565b610761576040517f08c379a0000000000000000000000000000000000000000000000000000000008152600401610758906135ef565b60405180910390fd5b61076c838383611749565b505050565b606060006107a5610781846119a5565b6040516020016107919190613290565b604051602081830303815290604052611b52565b9050600b80549050816107b89190613949565b9050600b81815481106107f4577f4e487b7100000000000000000000000000000000000000000000000000000000600052603260045260246000fd5b906000526020600020018054610809906138ce565b80601f0160208091040260200160405190810160405280929190818152602001828054610835906138ce565b80156108825780601f1061085757610100808354040283529160200191610882565b820191906000526020600020905b81548152906001019060200180831161086557829003601f168201915b5050505050915050919050565b6108aa83838360405180602001604052806000815250610e68565b505050565b606060006108e36108bf846119a5565b6040516020016108cf91906132d4565b604051602081830303815290604052611b52565b9050600e80549050816108f69190613949565b9050600e8181548110610932577f4e487b7100000000000000000000000000000000000000000000000000000000600052603260045260246000fd5b906000526020600020018054610947906138ce565b80601f0160208091040260200160405190810160405280929190818152602001828054610973906138ce565b80156109c05780601f10610995576101008083540402835291602001916109c0565b820191906000526020600020905b8154815290600101906020018083116109a357829003601f168201915b5050505050915050919050565b6000806002600084815260200190815260200160002060009054906101000a900473ffffffffffffffffffffffffffffffffffffffff169050600073ffffffffffffffffffffffffffffffffffffffff168173ffffffffffffffffffffffffffffffffffffffff161415610a76576040517f08c379a0000000000000000000000000000000000000000000000000000000008152600401610a6d906134ef565b60405180910390fd5b80915050919050565b60008073ffffffffffffffffffffffffffffffffffffffff168273ffffffffffffffffffffffffffffffffffffffff161415610af0576040517f08c379a0000000000000000000000000000000000000000000000000000000008152600401610ae7906134cf565b60405180910390fd5b600360008373ffffffffffffffffffffffffffffffffffffffff1673ffffffffffffffffffffffffffffffffffffffff168152602001908152602001600020549050919050565b606060018054610b46906138ce565b80601f0160208091040260200160405190810160405280929190818152602001828054610b72906138ce565b8015610bbf5780601f10610b9457610100808354040283529160200191610bbf565b820191906000526020600020905b815481529060010190602001808311610ba257829003601f168201915b5050505050905090565b610bd16115aa565b73ffffffffffffffffffffffffffffffffffffffff168273ffffffffffffffffffffffffffffffffffffffff161415610c3f576040517f08c379a0000000000000000000000000000000000000000000000000000000008152600401610c369061346f565b60405180910390fd5b8060056000610c4c6115aa565b73ffffffffffffffffffffffffffffffffffffffff1673ffffffffffffffffffffffffffffffffffffffff16815260200190815260200160002060008473ffffffffffffffffffffffffffffffffffffffff1673ffffffffffffffffffffffffffffffffffffffff16815260200190815260200160002060006101000a81548160ff0219169083151502179055508173ffffffffffffffffffffffffffffffffffffffff16610cf96115aa565b73ffffffffffffffffffffffffffffffffffffffff167f17307eab39ab6107e8899845ad3d59bd9653f200f220920489ca2b5937696c3183604051610d3e9190613394565b60405180910390a35050565b60606000610d7e610d5a846119a5565b604051602001610d6a9190613229565b604051602081830303815290604052611b52565b9050600c8054905081610d919190613949565b9050600c8181548110610dcd577f4e487b7100000000000000000000000000000000000000000000000000000000600052603260045260246000fd5b906000526020600020018054610de2906138ce565b80601f0160208091040260200160405190810160405280929190818152602001828054610e0e906138ce565b8015610e5b5780601f10610e3057610100808354040283529160200191610e5b565b820191906000526020600020905b815481529060010190602001808311610e3e57829003601f168201915b5050505050915050919050565b610e79610e736115aa565b8361166b565b610eb8576040517f08c379a0000000000000000000000000000000000000000000000000000000008152600401610eaf906135ef565b60405180910390fd5b610ec484848484611b85565b50505050565b60606000610efe610eda846119a5565b604051602001610eea9190613207565b604051602081830303815290604052611b52565b9050600d8054905081610f119190613949565b9050600d8181548110610f4d577f4e487b7100000000000000000000000000000000000000000000000000000000600052603260045260246000fd5b906000526020600020018054610f62906138ce565b80601f0160208091040260200160405190810160405280929190818152602001828054610f8e906138ce565b8015610fdb5780601f10610fb057610100808354040283529160200191610fdb565b820191906000526020600020905b815481529060010190602001808311610fbe57829003601f168201915b5050505050915050919050565b6060610ff38261153e565b611032576040517f08c379a00000000000000000000000000000000000000000000000000000000081526004016110299061354f565b60405180910390fd5b6000600660008481526020019081526020016000208054611052906138ce565b80601f016020809104026020016040519081016040528092919081815260200182805461107e906138ce565b80156110cb5780601f106110a0576101008083540402835291602001916110cb565b820191906000526020600020905b8154815290600101906020018083116110ae57829003601f168201915b5050505050905060006110dc611be1565b90506000815114156110f2578192505050611135565b60008251111561112757808260405160200161110f929190613169565b60405160208183030381529060405292505050611135565b61113084611bf8565b925050505b919050565b60326008541061117f576040517f08c379a00000000000000000000000000000000000000000000000000000000081526004016111769061360f565b60405180910390fd5b600061118b6007611c9f565b9050600061119882610771565b905060006111a583610d4a565b905060006111b284610eca565b905060008383836040516020016111cb9392919061318d565b604051602081830303815290604052905060006111e7866108af565b90506000600982600a8560405160200161120494939291906131be565b604051602081830303815290604052905060006112498461122484611cad565b60405160200161123592919061324b565b604051602081830303815290604052611cad565b905060008160405160200161125e91906132b2565b60405160208183030381529060405290506112ad6040518060400160405280601181526020017f0a5f5f5f5f5f5f5f5f5f5f5f5f5f5f5f5f00000000000000000000000000000081525061143b565b6112b68161143b565b6112f46040518060400160405280601081526020017f5f5f5f5f5f5f5f5f5f5f5f5f5f5f5f5f0000000000000000000000000000000081525061143b565b611307336113026007611c9f565b611e6b565b61131a6113146007611c9f565b82611e89565b61133d604051806060016040528060258152602001613aa4602591398a33611efd565b6113476007611f9c565b6008600081548092919061135a90613900565b91905055507f9e9e101732de0887d722bd72c01c5439edc857c9c2c763953d67e66de12441d3338a6008546040516113949392919061335d565b60405180910390a1505050505050505050565b6000600560008473ffffffffffffffffffffffffffffffffffffffff1673ffffffffffffffffffffffffffffffffffffffff16815260200190815260200160002060008373ffffffffffffffffffffffffffffffffffffffff1673ffffffffffffffffffffffffffffffffffffffff16815260200190815260200160002060009054906101000a900460ff16905092915050565b6114d18160405160240161144f91906133af565b6040516020818303038152906040527f41304fac000000000000000000000000000000000000000000000000000000007bffffffffffffffffffffffffffffffffffffffffffffffffffffffff19166020820180517bffffffffffffffffffffffffffffffffffffffffffffffffffffffff8381831617835250505050611fb2565b50565b60007f01ffc9a7000000000000000000000000000000000000000000000000000000007bffffffffffffffffffffffffffffffffffffffffffffffffffffffff1916827bffffffffffffffffffffffffffffffffffffffffffffffffffffffff1916149050919050565b60008073ffffffffffffffffffffffffffffffffffffffff166002600084815260200190815260200160002060009054906101000a900473ffffffffffffffffffffffffffffffffffffffff1673ffffffffffffffffffffffffffffffffffffffff1614159050919050565b600033905090565b816004600083815260200190815260200160002060006101000a81548173ffffffffffffffffffffffffffffffffffffffff021916908373ffffffffffffffffffffffffffffffffffffffff160217905550808273ffffffffffffffffffffffffffffffffffffffff16611625836109cd565b73ffffffffffffffffffffffffffffffffffffffff167f8c5be1e5ebec7d5bd14f71427d1e84f3dd0314c0f7b2291e5b200ac8c7c3b92560405160405180910390a45050565b60006116768261153e565b6116b5576040517f08c379a00000000000000000000000000000000000000000000000000000000081526004016116ac9061348f565b60405180910390fd5b60006116c0836109cd565b90508073ffffffffffffffffffffffffffffffffffffffff168473ffffffffffffffffffffffffffffffffffffffff16148061172f57508373ffffffffffffffffffffffffffffffffffffffff1661171784610574565b73ffffffffffffffffffffffffffffffffffffffff16145b80611740575061173f81856113a7565b5b91505092915050565b8273ffffffffffffffffffffffffffffffffffffffff16611769826109cd565b73ffffffffffffffffffffffffffffffffffffffff16146117bf576040517f08c379a00000000000000000000000000000000000000000000000000000000081526004016117b69061358f565b60405180910390fd5b600073ffffffffffffffffffffffffffffffffffffffff168273ffffffffffffffffffffffffffffffffffffffff16141561182f576040517f08c379a00000000000000000000000000000000000000000000000000000000081526004016118269061344f565b60405180910390fd5b61183a838383611fdb565b6118456000826115b2565b6001600360008573ffffffffffffffffffffffffffffffffffffffff1673ffffffffffffffffffffffffffffffffffffffff168152602001908152602001600020600082825461189591906137e4565b925050819055506001600360008473ffffffffffffffffffffffffffffffffffffffff1673ffffffffffffffffffffffffffffffffffffffff16815260200190815260200160002060008282546118ec9190613703565b92505081905550816002600083815260200190815260200160002060006101000a81548173ffffffffffffffffffffffffffffffffffffffff021916908373ffffffffffffffffffffffffffffffffffffffff160217905550808273ffffffffffffffffffffffffffffffffffffffff168473ffffffffffffffffffffffffffffffffffffffff167fddf252ad1be2c89b69c2b068fc378daa952ba7f163c4a11628f55a4df523b3ef60405160405180910390a4505050565b606060008214156119ed576040518060400160405280600181526020017f30000000000000000000000000000000000000000000000000000000000000008152509050611b4d565b600082905060005b60008214611a1f578080611a0890613900565b915050600a82611a189190613759565b91506119f5565b60008167ffffffffffffffff811115611a61577f4e487b7100000000000000000000000000000000000000000000000000000000600052604160045260246000fd5b6040519080825280601f01601f191660200182016040528015611a935781602001600182028036833780820191505090505b5090505b60008514611b4657600182611aac91906137e4565b9150600a85611abb9190613949565b6030611ac79190613703565b60f81b818381518110611b03577f4e487b7100000000000000000000000000000000000000000000000000000000600052603260045260246000fd5b60200101907effffffffffffffffffffffffffffffffffffffffffffffffffffffffffffff1916908160001a905350600a85611b3f9190613759565b9450611a97565b8093505050505b919050565b600081604051602001611b659190613152565b6040516020818303038152906040528051906020012060001c9050919050565b611b90848484611749565b611b9c84848484611fe0565b611bdb576040517f08c379a0000000000000000000000000000000000000000000000000000000008152600401611bd29061340f565b60405180910390fd5b50505050565b606060405180602001604052806000815250905090565b6060611c038261153e565b611c42576040517f08c379a0000000000000000000000000000000000000000000000000000000008152600401611c39906135af565b60405180910390fd5b6000611c4c611be1565b90506000815111611c6c5760405180602001604052806000815250611c97565b80611c76846119a5565b604051602001611c87929190613169565b6040516020818303038152906040525b915050919050565b600081600001549050919050565b60606000825190506000811415611cd65760405180602001604052806000815250915050611e66565b60006003600283611ce79190613703565b611cf19190613759565b6004611cfd919061378a565b90506000602082611d0e9190613703565b67ffffffffffffffff811115611d4d577f4e487b7100000000000000000000000000000000000000000000000000000000600052604160045260246000fd5b6040519080825280601f01601f191660200182016040528015611d7f5781602001600182028036833780820191505090505b5090506000604051806060016040528060408152602001613ac9604091399050600181016020830160005b86811015611e235760038101905062ffffff818a015116603f8160121c168401518060081b905060ff603f83600c1c1686015116810190508060081b905060ff603f8360061c1686015116810190508060081b905060ff603f831686015116810190508060e01b90508084526004840193505050611daa565b506003860660018114611e3d5760028114611e4d57611e58565b613d3d60f01b6002830352611e58565b603d60f81b60018303525b508484525050819450505050505b919050565b611e85828260405180602001604052806000815250612177565b5050565b611e928261153e565b611ed1576040517f08c379a0000000000000000000000000000000000000000000000000000000008152600401611ec89061350f565b60405180910390fd5b80600660008481526020019081526020016000209080519060200190611ef89291906123b3565b505050565b611f97838383604051602401611f15939291906133d1565b6040516020818303038152906040527fe3849f79000000000000000000000000000000000000000000000000000000007bffffffffffffffffffffffffffffffffffffffffffffffffffffffff19166020820180517bffffffffffffffffffffffffffffffffffffffffffffffffffffffff8381831617835250505050611fb2565b505050565b6001816000016000828254019250508190555050565b60008151905060006a636f6e736f6c652e6c6f679050602083016000808483855afa5050505050565b505050565b60006120018473ffffffffffffffffffffffffffffffffffffffff166121d2565b1561216a578373ffffffffffffffffffffffffffffffffffffffff1663150b7a0261202a6115aa565b8786866040518563ffffffff1660e01b815260040161204c9493929190613311565b602060405180830381600087803b15801561206657600080fd5b505af192505050801561209757506040513d601f19601f8201168201806040525081019061209491906126f7565b60015b61211a573d80600081146120c7576040519150601f19603f3d011682016040523d82523d6000602084013e6120cc565b606091505b50600081511415612112576040517f08c379a00000000000000000000000000000000000000000000000000000000081526004016121099061340f565b60405180910390fd5b805181602001fd5b63150b7a0260e01b7bffffffffffffffffffffffffffffffffffffffffffffffffffffffff1916817bffffffffffffffffffffffffffffffffffffffffffffffffffffffff19161491505061216f565b600190505b949350505050565b61218183836121e5565b61218e6000848484611fe0565b6121cd576040517f08c379a00000000000000000000000000000000000000000000000000000000081526004016121c49061340f565b60405180910390fd5b505050565b600080823b905060008111915050919050565b600073ffffffffffffffffffffffffffffffffffffffff168273ffffffffffffffffffffffffffffffffffffffff161415612255576040517f08c379a000000000000000000000000000000000000000000000000000000000815260040161224c9061352f565b60405180910390fd5b61225e8161153e565b1561229e576040517f08c379a00000000000000000000000000000000000000000000000000000000081526004016122959061342f565b60405180910390fd5b6122aa60008383611fdb565b6001600360008473ffffffffffffffffffffffffffffffffffffffff1673ffffffffffffffffffffffffffffffffffffffff16815260200190815260200160002060008282546122fa9190613703565b92505081905550816002600083815260200190815260200160002060006101000a81548173ffffffffffffffffffffffffffffffffffffffff021916908373ffffffffffffffffffffffffffffffffffffffff160217905550808273ffffffffffffffffffffffffffffffffffffffff16600073ffffffffffffffffffffffffffffffffffffffff167fddf252ad1be2c89b69c2b068fc378daa952ba7f163c4a11628f55a4df523b3ef60405160405180910390a45050565b8280546123bf906138ce565b90600052602060002090601f0160209004810192826123e15760008555612428565b82601f106123fa57805160ff1916838001178555612428565b82800160010185558215612428579182015b8281111561242757825182559160200191906001019061240c565b5b5090506124359190612439565b5090565b5b8082111561245257600081600090555060010161243a565b5090565b60006124696124648461367b565b61364a565b90508281526020810184848401111561248157600080fd5b61248c84828561388c565b509392505050565b6000813590506124a381613a47565b92915050565b6000813590506124b881613a5e565b92915050565b6000813590506124cd81613a75565b92915050565b6000815190506124e281613a75565b92915050565b600082601f8301126124f957600080fd5b8135612509848260208601612456565b91505092915050565b60008135905061252181613a8c565b92915050565b60006020828403121561253957600080fd5b600061254784828501612494565b91505092915050565b6000806040838503121561256357600080fd5b600061257185828601612494565b925050602061258285828601612494565b9150509250929050565b6000806000606084860312156125a157600080fd5b60006125af86828701612494565b93505060206125c086828701612494565b92505060406125d186828701612512565b9150509250925092565b600080600080608085870312156125f157600080fd5b60006125ff87828801612494565b945050602061261087828801612494565b935050604061262187828801612512565b925050606085013567ffffffffffffffff81111561263e57600080fd5b61264a878288016124e8565b91505092959194509250565b6000806040838503121561266957600080fd5b600061267785828601612494565b9250506020612688858286016124a9565b9150509250929050565b600080604083850312156126a557600080fd5b60006126b385828601612494565b92505060206126c485828601612512565b9150509250929050565b6000602082840312156126e057600080fd5b60006126ee848285016124be565b91505092915050565b60006020828403121561270957600080fd5b6000612717848285016124d3565b91505092915050565b60006020828403121561273257600080fd5b600061274084828501612512565b91505092915050565b61275281613818565b82525050565b6127618161382a565b82525050565b6000612772826136c0565b61277c81856136d6565b935061278c81856020860161389b565b61279581613a36565b840191505092915050565b60006127ab826136cb565b6127b581856136e7565b93506127c581856020860161389b565b6127ce81613a36565b840191505092915050565b60006127e4826136cb565b6127ee81856136f8565b93506127fe81856020860161389b565b80840191505092915050565b60008154612817816138ce565b61282181866136f8565b9450600182166000811461283c576001811461284d57612880565b60ff19831686528186019350612880565b612856856136ab565b60005b8381101561287857815481890152600182019150602081019050612859565b838801955050505b50505092915050565b60006128966032836136e7565b91507f4552433732313a207472616e7366657220746f206e6f6e20455243373231526560008301527f63656976657220696d706c656d656e74657200000000000000000000000000006020830152604082019050919050565b60006128fc6054836136f8565b91507f222c226465736372697074696f6e223a225072656d69756d204e617275746f2060008301527f46756e6e7920537175617265732e222c2022696d616765223a22646174613a6960208301527f6d6167652f7376672b786d6c3b6261736536342c0000000000000000000000006040830152605482019050919050565b6000612988601c836136e7565b91507f4552433732313a20746f6b656e20616c7265616479206d696e746564000000006000830152602082019050919050565b60006129c8600a836136f8565b91507f54484952445f574f5244000000000000000000000000000000000000000000006000830152600a82019050919050565b6000612a086024836136e7565b91507f4552433732313a207472616e7366657220746f20746865207a65726f2061646460008301527f72657373000000000000000000000000000000000000000000000000000000006020830152604082019050919050565b6000612a6e6019836136e7565b91507f4552433732313a20617070726f766520746f2063616c6c6572000000000000006000830152602082019050919050565b6000612aae600b836136f8565b91507f5345434f4e445f574f52440000000000000000000000000000000000000000006000830152600b82019050919050565b6000612aee602c836136e7565b91507f4552433732313a206f70657261746f7220717565727920666f72206e6f6e657860008301527f697374656e7420746f6b656e00000000000000000000000000000000000000006020830152604082019050919050565b6000612b54600d836136f8565b91507f3c2f746578743e3c2f7376673e000000000000000000000000000000000000006000830152600d82019050919050565b6000612b94600b836136f8565b91507f7b226e616d6522203a20220000000000000000000000000000000000000000006000830152600b82019050919050565b6000612bd46038836136e7565b91507f4552433732313a20617070726f76652063616c6c6572206973206e6f74206f7760008301527f6e6572206e6f7220617070726f76656420666f7220616c6c00000000000000006020830152604082019050919050565b6000612c3a602a836136e7565b91507f4552433732313a2062616c616e636520717565727920666f7220746865207a6560008301527f726f2061646472657373000000000000000000000000000000000000000000006020830152604082019050919050565b6000612ca06029836136e7565b91507f4552433732313a206f776e657220717565727920666f72206e6f6e657869737460008301527f656e7420746f6b656e00000000000000000000000000000000000000000000006020830152604082019050919050565b6000612d06602e836136e7565b91507f45524337323155524953746f726167653a2055524920736574206f66206e6f6e60008301527f6578697374656e7420746f6b656e0000000000000000000000000000000000006020830152604082019050919050565b6000612d6c6002836136f8565b91507f227d0000000000000000000000000000000000000000000000000000000000006000830152600282019050919050565b6000612dac6020836136e7565b91507f4552433732313a206d696e7420746f20746865207a65726f20616464726573736000830152602082019050919050565b6000612dec6031836136e7565b91507f45524337323155524953746f726167653a2055524920717565727920666f722060008301527f6e6f6e6578697374656e7420746f6b656e0000000000000000000000000000006020830152604082019050919050565b6000612e52602c836136e7565b91507f4552433732313a20617070726f76656420717565727920666f72206e6f6e657860008301527f697374656e7420746f6b656e00000000000000000000000000000000000000006020830152604082019050919050565b6000612eb86029836136e7565b91507f4552433732313a207472616e73666572206f6620746f6b656e2074686174206960008301527f73206e6f74206f776e00000000000000000000000000000000000000000000006020830152604082019050919050565b6000612f1e602f836136e7565b91507f4552433732314d657461646174613a2055524920717565727920666f72206e6f60008301527f6e6578697374656e7420746f6b656e00000000000000000000000000000000006020830152604082019050919050565b6000612f846021836136e7565b91507f4552433732313a20617070726f76616c20746f2063757272656e74206f776e6560008301527f72000000000000000000000000000000000000000000000000000000000000006020830152604082019050919050565b6000612fea600a836136f8565b91507f46495253545f574f5244000000000000000000000000000000000000000000006000830152600a82019050919050565b600061302a601d836136f8565b91507f646174613a6170706c69636174696f6e2f6a736f6e3b6261736536342c0000006000830152601d82019050919050565b600061306a6031836136e7565b91507f4552433732313a207472616e736665722063616c6c6572206973206e6f74206f60008301527f776e6572206e6f7220617070726f7665640000000000000000000000000000006020830152604082019050919050565b60006130d06005836136f8565b91507f434f4c4f520000000000000000000000000000000000000000000000000000006000830152600582019050919050565b6000613110601c836136e7565b91507f43616e2774206d696e74206d6f7265207468616e203530204e465473000000006000830152602082019050919050565b61314c81613882565b82525050565b600061315e82846127d9565b915081905092915050565b600061317582856127d9565b915061318182846127d9565b91508190509392505050565b600061319982866127d9565b91506131a582856127d9565b91506131b182846127d9565b9150819050949350505050565b60006131ca828761280a565b91506131d682866127d9565b91506131e2828561280a565b91506131ee82846127d9565b91506131f982612b47565b915081905095945050505050565b6000613212826129bb565b915061321e82846127d9565b915081905092915050565b600061323482612aa1565b915061324082846127d9565b915081905092915050565b600061325682612b87565b915061326282856127d9565b915061326d826128ef565b915061327982846127d9565b915061328482612d5f565b91508190509392505050565b600061329b82612fdd565b91506132a782846127d9565b915081905092915050565b60006132bd8261301d565b91506132c982846127d9565b915081905092915050565b60006132df826130c3565b91506132eb82846127d9565b915081905092915050565b600060208201905061330b6000830184612749565b92915050565b60006080820190506133266000830187612749565b6133336020830186612749565b6133406040830185613143565b81810360608301526133528184612767565b905095945050505050565b60006060820190506133726000830186612749565b61337f6020830185613143565b61338c6040830184613143565b949350505050565b60006020820190506133a96000830184612758565b92915050565b600060208201905081810360008301526133c981846127a0565b905092915050565b600060608201905081810360008301526133eb81866127a0565b90506133fa6020830185613143565b6134076040830184612749565b949350505050565b6000602082019050818103600083015261342881612889565b9050919050565b600060208201905081810360008301526134488161297b565b9050919050565b60006020820190508181036000830152613468816129fb565b9050919050565b6000602082019050818103600083015261348881612a61565b9050919050565b600060208201905081810360008301526134a881612ae1565b9050919050565b600060208201905081810360008301526134c881612bc7565b9050919050565b600060208201905081810360008301526134e881612c2d565b9050919050565b6000602082019050818103600083015261350881612c93565b9050919050565b6000602082019050818103600083015261352881612cf9565b9050919050565b6000602082019050818103600083015261354881612d9f565b9050919050565b6000602082019050818103600083015261356881612ddf565b9050919050565b6000602082019050818103600083015261358881612e45565b9050919050565b600060208201905081810360008301526135a881612eab565b9050919050565b600060208201905081810360008301526135c881612f11565b9050919050565b600060208201905081810360008301526135e881612f77565b9050919050565b600060208201905081810360008301526136088161305d565b9050919050565b6000602082019050818103600083015261362881613103565b9050919050565b60006020820190506136446000830184613143565b92915050565b6000604051905081810181811067ffffffffffffffff8211171561367157613670613a07565b5b8060405250919050565b600067ffffffffffffffff82111561369657613695613a07565b5b601f19601f8301169050602081019050919050565b60008190508160005260206000209050919050565b600081519050919050565b600081519050919050565b600082825260208201905092915050565b600082825260208201905092915050565b600081905092915050565b600061370e82613882565b915061371983613882565b9250827fffffffffffffffffffffffffffffffffffffffffffffffffffffffffffffffff0382111561374e5761374d61397a565b5b828201905092915050565b600061376482613882565b915061376f83613882565b92508261377f5761377e6139a9565b5b828204905092915050565b600061379582613882565b91506137a083613882565b9250817fffffffffffffffffffffffffffffffffffffffffffffffffffffffffffffffff04831182151516156137d9576137d861397a565b5b828202905092915050565b60006137ef82613882565b91506137fa83613882565b92508282101561380d5761380c61397a565b5b828203905092915050565b600061382382613862565b9050919050565b60008115159050919050565b60007fffffffff0000000000000000000000000000000000000000000000000000000082169050919050565b600073ffffffffffffffffffffffffffffffffffffffff82169050919050565b6000819050919050565b82818337600083830152505050565b60005b838110156138b957808201518184015260208101905061389e565b838111156138c8576000848401525b50505050565b600060028204905060018216806138e657607f821691505b602082108114156138fa576138f96139d8565b5b50919050565b600061390b82613882565b91507fffffffffffffffffffffffffffffffffffffffffffffffffffffffffffffffff82141561393e5761393d61397a565b5b600182019050919050565b600061395482613882565b915061395f83613882565b92508261396f5761396e6139a9565b5b828206905092915050565b7f4e487b7100000000000000000000000000000000000000000000000000000000600052601160045260246000fd5b7f4e487b7100000000000000000000000000000000000000000000000000000000600052601260045260246000fd5b7f4e487b7100000000000000000000000000000000000000000000000000000000600052602260045260246000fd5b7f4e487b7100000000000000000000000000000000000000000000000000000000600052604160045260246000fd5b6000601f19601f8301169050919050565b613a5081613818565b8114613a5b57600080fd5b50565b613a678161382a565b8114613a7257600080fd5b50565b613a7e81613836565b8114613a8957600080fd5b50565b613a9581613882565b8114613aa057600080fd5b5056fe416e204e465420772f20494420257320686173206265656e206d696e74656420746f2025734142434445464748494a4b4c4d4e4f505152535455565758595a6162636465666768696a6b6c6d6e6f707172737475767778797a303132333435363738392b2fa2646970667358221220cb4522276bf65d6c358f9fd875fac21f6777551bf1bb38ed80842f1f650eba8864736f6c634300080000333c73766720786d6c6e733d27687474703a2f2f7777772e77332e6f72672f323030302f73766727207072657365727665417370656374526174696f3d27784d696e594d696e206d656574272076696577426f783d273020302033353020333530273e3c7374796c653e2e62617365207b2066696c6c3a2077686974653b20666f6e742d66616d696c793a2073657269663b20666f6e742d73697a653a20323470783b207d3c2f7374796c653e3c726563742077696474683d273130302527206865696768743d2731303025272066696c6c3d27272f3e3c7465787420783d273530252720793d273530252720636c6173733d27626173652720646f6d696e616e742d626173656c696e653d276d6964646c652720746578742d616e63686f723d276d6964646c65273e",
  "linkReferences": {},
  "deployedLinkReferences": {}
}